:100000000C9446000C9465000C9465000C946500FB
:100010000C9465000C9465000C9465000C946500CC
:100020000C9465000C9465000C9465000C946500BC
:100030000C9465000C9465000C9465000C946500AC
:100040000C9465000C9465000C9465000C9465009C
:100050000C9465000C9465000C9465000C9465008C
:100060000C9465000C9465000C9465000C9465007C
:100070000C9465000C9465000C9465000C9465006C
:100080000C9465000C9465000C94650011241FBE4F
:10009000CFEFD0E4DEBFCDBF11E0A0E0B1E0E6E5F8
:1000A000FAE000E00BBF02C007900D92AE30B1073E
:1000B000D9F721E0AEE0B1E001C01D92A931B2074D
:1000C000E1F70E9466030C9429050C940000CF937D
:1000D000DF9300D00F92CDB7DEB789837B836A832D
:1000E00089818A3031F48A819B81BC018DE00E9434
:1000F000670080EC90E0FC018081882F90E08072A6
:100100009927892BB1F386EC90E02981FC012083AB
:1001100080E090E00F900F900F90DF91CF910895C5
:10012000CF93DF930F92CDB7DEB78983898181307A
:1001300039F464EA70ED82E893E40E94EA0045C075
:100140008981823039F46BE774ED82E993E40E948F
:10015000EA003BC08981833039F464EA70ED84EAB7
:1001600093E40E94EA0031C08981843039F461E768
:100170007DE98EEA93E40E94EA0027C089818530F8
:1001800039F460E070E084EC93E40E94EA001DC062
:100190008981863039F460E070E08CED93E40E9450
:1001A000EA0013C08981873039F464EA70EF86EF82
:1001B00093E40E94EA0009C08981883031F460E04C
:1001C00070ED82E094E40E94EA0000000F90DF915D
:1001D000CF910895CF93DF93CDB7DEB764970FB675
:1001E000F894DEBF0FBECDBF69837A838B839C8377
:1001F00080910E0190910F01A0911001B091110119
:100200009C01AD0169817A818B819C810E9495035B
:10021000882309F491C020E030E0A90169817A8146
:100220008B819C810E949503882351F481E990E0A1
:10023000DC012C9181E990E02870FC01208309C049
:1002400081E990E0DC012C9181E990E02360FC01E0
:10025000208328E539E344E75FE369817A818B8174
:100260009C810E94950388234CF488E990E02FEF4D
:100270003FEFDC0111963C932E934DC020E034E219
:1002800044EF56E469817A818B819C810E94B70496
:10029000181634F488E990E0FC01118210823BC00A
:1002A00020E030E040E053E469817A818B819C81D9
:1002B0000E94BC0469877A878B879C8789859A8589
:1002C000AB85BC859C01AD0160E074E284EF9AE4EB
:1002D0000E949A036D877E878F87988B8D859E8578
:1002E000AF85B8898D839E83AF83B8876D817E810A
:1002F0008F8198850E940C04698B7A8B8B8B9C8BE9
:1003000089899A899C012150310988E990E0DC01B2
:1003100011963C932E9384E990E0FC0111821082A7
:1003200089819A81AB81BC8180930E0190930F01EA
:10033000A0931001B0931101000064960FB6F894D9
:10034000DEBF0FBECDBFDF91CF910895CF93DF9376
:10035000CDB7DEB780E990E020E4FC01208381E99D
:1003600090E02BE0FC01208360E070E0CB010E9474
:10037000EA000000DF91CF910895CF93DF93CDB7CE
:10038000DEB780E990E0FC01108281E990E0FC0199
:1003900010820000DF91CF910895CF93DF93CDB706
:1003A000DEB780911701909118018530910509F40D
:1003B00071C08630910508F074C08430910509F44D
:1003C00057C08530910508F06CC08330910509F461
:1003D00048C08430910508F064C08230910579F1FD
:1003E0008330910508F05DC0009719F0019741F046
:1003F00058C081E090E0909318018093170154C099
:1004000080911601813059F480911201882339F4CA
:1004100082E090E0909318018093170144C080918E
:100420001601813009F03FC0809112018130D9F569
:1004300084E090E0909318018093170134C080917C
:100440001601813039F482E090E090931801809396
:1004500017012AC083E090E0909318018093170160
:1004600023C081E090E090931801809317011CC095
:1004700080911601813039F484E090E09093180166
:100480008093170111C085E090E09093180180934C
:1004900017010AC081E090E0909318018093170142
:1004A00003C0000001C00000809117019091180165
:1004B0008530910529F18630910520F5843091052C
:1004C000D1F085309105F0F483309105E9F0843066
:1004D0009105C0F48230910541F08330910590F48C
:1004E0000097A1F00197A1F00DC00E94A60181E044
:1004F000809312010EC00E94BD011092120109C02A
:10050000000007C0000005C0000003C0000001C0DB
:1005100000000000DF91CF910895CF93DF93CDB716
:10052000DEB780911301909114018530910509F493
:1005300077C08630910508F07AC08430910509F4BF
:100540005EC08530910508F072C08330910509F4D2
:100550004FC08430910508F06AC082309105B1F136
:100560008330910508F063C0009719F0019741F0BE
:100570005EC081E090E0909314018093130158C015
:1005800080911601843059F480911201813039F440
:1005900082E090E0909314018093130116C0809143
:1005A0001601823059F480911201813039F484E0CF
:1005B00090E0909314018093130107C081E090E0D4
:1005C000909314018093130133C032C080911601BF
:1005D000843039F482E090E0909314018093130109
:1005E00027C083E090E0909314018093130120C012
:1005F00081E090E0909314018093130119C08091E1
:100600001601823039F484E090E0909314018093D5
:10061000130106C085E090E09093140180931301CC
:1006200081E090E0909314018093130101C00000D9
:1006300080911301909114018530910541F186302C
:10064000910598F58430910591F18530910568F513
:100650008330910571F08430910538F58230910531
:1006600041F18330910508F5009729F1019729F1AF
:100670001CC080911501883010F5809115018F5FA5
:1006800080931501809115010E94900018C08091FF
:1006900015018230B0F080911501815080931501D1
:1006A000809115010E9490000CC000000BC000005A
:1006B00009C0000007C0000005C0000003C0000022
:1006C00001C000000000DF91CF910895CF93DF9328
:1006D000CDB7DEB781E290E0FC01108282E290E0CB
:1006E0002FEFFC01208384E290E02FEFFC012083B8
:1006F00085E290E0FC01108210921801109217011F
:1007000010921401109213011092120181E0809353
:10071000150180E290E0FC018081809580931601B4
:100720000E94CD010E948D02F4CF0E94420408F481
:1007300081E008950E94AE030C947D040E9476042B
:1007400058F00E946F0440F029F45F3F29F00C94A8
:10075000660451110C94B1040C946C040E948E0434
:1007600068F39923B1F3552391F3951B550BBB27E0
:10077000AA2762177307840738F09F5F5F4F220F25
:10078000331F441FAA1FA9F335D00E2E3AF0E0E81C
:1007900032D091505040E695001CCAF72BD0FE2F66
:1007A00029D0660F771F881FBB1F261737074807FA
:1007B000AB07B0E809F0BB0B802DBF01FF279358B2
:1007C0005F4F3AF09E3F510578F00C9466040C940C
:1007D000B1045F3FE4F3983ED4F38695779567952F
:1007E000B795F7959F5FC9F7880F911D96958795E7
:1007F00097F90895E1E0660F771F881FBB1F621706
:1008000073078407BA0720F0621B730B840BBA0BC3
:10081000EE1F88F7E09508950E9413046894B111C3
:100820000C94B10408950E94960488F09F5798F0A4
:10083000B92F9927B751B0F0E1F0660F771F881FE5
:10084000991F1AF0BA95C9F714C0B13091F00E94FF
:10085000B004B1E008950C94B004672F782F882776
:10086000B85F39F0B93FCCF3869577956795B39526
:10087000D9F73EF490958095709561957F4F8F4F95
:100880009F4F0895990F0008550FAA0BE0E8FEEF5F
:1008900016161706E807F907C0F012161306E40744
:1008A000F50798F0621B730B840B950B39F40A263D
:1008B00061F0232B242B252B21F408950A2609F41B
:1008C000A140A6958FEF811D811D089597F99F671F
:1008D00080E870E060E008959FEF80EC08950024C8
:1008E0000A941616170618060906089500240A9495
:1008F00012161306140605060895092E0394000C1B
:1009000011F4882352F0BB0F40F4BF2B11F460FFA9
:1009100004C06F5F7F4F8F4F9F4F089557FD9058D2
:10092000440F551F59F05F3F71F04795880F97FBB3
:10093000991F61F09F3F79F087950895121613066D
:100940001406551FF2CF4695F1DF08C0161617069C
:100950001806991FF1CF86957105610508940895D1
:10096000E894BB2766277727CB0197F908950E9463
:10097000420408F48FEF08950E94CF040C947D0484
:100980000E946F0438F00E94760420F0952311F045
:100990000C9466040C946C0411240C94B1040E9411
:1009A0008E0470F3959FC1F3950F50E0551F629F21
:1009B000F001729FBB27F00DB11D639FAA27F00DB8
:1009C000B11DAA1F649F6627B00DA11D661F829FDF
:1009D0002227B00DA11D621F739FB00DA11D621FC4
:1009E000839FA00D611D221F749F3327A00D611DE1
:1009F000231F849F600D211D822F762F6A2F1124C3
:100A00009F5750409AF0F1F088234AF0EE0FFF1FF5
:100A1000BB1F661F771F881F91505040A9F79E3F4C
:100A2000510580F00C9466040C94B1045F3FE4F32C
:100A3000983ED4F3869577956795B795F795E795A2
:100A40009F5FC1F7FE2B880F911D9695879597F9AB
:060A50000895F894FFCFA9
:0E0A5600000000020000000067000000000029
:00000001FF
