:100000000C9446000C9465000C9465000C946500FB
:100010000C9465000C9465000C9465000C946500CC
:100020000C9465000C9465000C9465000C946500BC
:100030000C9465000C9465000C9465000C946500AC
:100040000C9465000C9465000C9465000C9465009C
:100050000C9465000C9465000C9465000C9465008C
:100060000C9465000C9465000C9465000C9465007C
:100070000C9465000C9465000C9465000C9465006C
:100080000C9465000C9465000C94650011241FBE4F
:10009000CFEFD0E4DEBFCDBF11E0A0E0B1E0E8EEED
:1000A000F7E000E00BBF02C007900D92AE30B10741
:1000B000D9F721E0AEE0B1E001C01D92A531B20751
:1000C000E1F70E943E020C94F2030C940000CF93DF
:1000D000DF9300D00F92CDB7DEB789837B836A832D
:1000E00089818A3031F48A819B81BC018DE00E9434
:1000F000670080EC90E0FC018081882F90E08072A6
:100100009927892BB1F386EC90E02981FC012083AB
:1001100080E090E00F900F900F90DF91CF910895C5
:10012000CF93DF93CDB7DEB7809112019091130189
:100130008430910509F472C08530910508F080C0C3
:100140008330910509F458C08430910508F078C0D7
:100150008230910509F43EC08330910508F070C0EB
:10016000009719F0019741F06BC081E090E0909307
:1001700013018093120165C080911401813049F40C
:100180000E94170282E090E0909313018093120185
:1001900058C080911401823049F40E94170283E014
:1001A00090E090931301809312014BC08091140151
:1001B000843049F40E94170284E090E09093130188
:1001C000809312013EC081E090E0909313018093F0
:1001D000120137C080911401813039F482E090E03F
:1001E00090931301809312012CC081E090E09093D2
:1001F00013018093120125C080911401823039F4DB
:1002000083E090E090931301809312011AC081E083
:1002100090E0909313018093120113C08091140118
:10022000843039F484E090E09093130180931201BC
:1002300008C081E090E0909313018093120101C007
:10024000000080911201909113018430910529F1F1
:100250008530910548F583309105C1F084309105D2
:1002600018F58230910559F083309105E8F4009734
:10027000E9F0019709F018C00E942E0218C064EA44
:1002800070ED82E893E40E945B0111C06BE774EDAE
:1002900082E993E40E945B010AC064EA70ED84EA9B
:1002A00093E40E945B0103C0000001C00000000055
:1002B000DF91CF910895CF93DF93CDB7DEB76497E9
:1002C0000FB6F894DEBF0FBECDBF69837A838B83F0
:1002D0009C8380910E0190910F01A0911001B0912B
:1002E00011019C01AD0169817A818B819C810E9401
:1002F0005E02882309F491C020E030E0A901698101
:100300007A818B819C810E945E02882351F481E96D
:1003100090E0DC012C9181E990E02870FC012083C1
:1003200009C081E990E0DC012C9181E990E0236033
:10033000FC01208328E539E344E75FE369817A81A2
:100340008B819C810E945E0288234CF488E990E0B6
:100350002FEF3FEFDC0111963C932E934DC020E030
:1003600034E244EF56E469817A818B819C810E945A
:100370008003181634F488E990E0FC0111821082A1
:100380003BC020E030E040E053E469817A818B811A
:100390009C810E94850369877A878B879C878985E2
:1003A0009A85AB85BC859C01AD0160E074E284EF69
:1003B0009AE40E9463026D877E878F87988B8D8574
:1003C0009E85AF85B8898D839E83AF83B8876D8105
:1003D0007E818F8198850E94D502698B7A8B8B8B69
:1003E0009C8B89899A899C012150310988E990E088
:1003F000DC0111963C932E9384E990E0FC0111827C
:10040000108289819A81AB81BC8180930E01909387
:100410000F01A0931001B0931101000064960FB674
:10042000F894DEBF0FBECDBFDF91CF910895CF937B
:10043000DF93CDB7DEB780E990E020E4FC012083B4
:1004400081E990E02BE0FC01208360E070E0CB01CB
:100450000E945B010000DF91CF910895CF93DF935D
:10046000CDB7DEB780E990E0FC01108281E990E031
:10047000FC0110820000DF91CF910895CF93DF93AC
:10048000CDB7DEB781E290E0FC01108282E290E01D
:100490002FEFFC01208384E290E02FEFFC0120830A
:1004A00085E290E0FC01108280E290E0FC01808116
:1004B0008095809314010E949000F6CF0E940B0358
:1004C00008F481E008950E9477020C9446030E948C
:1004D0003F0358F00E94380340F029F45F3F29F0B1
:1004E0000C942F0351110C947A030C9435030E9441
:1004F000570368F39923B1F3552391F3951B550BDB
:10050000BB27AA2762177307840738F09F5F5F4FE6
:10051000220F331F441FAA1FA9F335D00E2E3AF025
:10052000E0E832D091505040E695001CCAF72BD03D
:10053000FE2F29D0660F771F881FBB1F261737078E
:100540004807AB07B0E809F0BB0B802DBF01FF27C0
:1005500093585F4F3AF09E3F510578F00C942F036B
:100560000C947A035F3FE4F3983ED4F38695779535
:100570006795B795F7959F5FC9F7880F911D969579
:10058000879597F90895E1E0660F771F881FBB1FD5
:10059000621773078407BA0720F0621B730B840B82
:1005A000BA0BEE1F88F7E09508950E94DC0268946C
:1005B000B1110C947A0308950E945F0388F09F574D
:1005C00098F0B92F9927B751B0F0E1F0660F771F77
:1005D000881F991F1AF0BA95C9F714C0B13091F06D
:1005E0000E947903B1E008950C947903672F782F66
:1005F0008827B85F39F0B93FCCF386957795679532
:10060000B395D9F73EF490958095709561957F4F9D
:100610008F4F9F4F0895990F0008550FAA0BE0E8E0
:10062000FEEF16161706E807F907C0F012161306B4
:10063000E407F50798F0621B730B840B950B39F4F4
:100640000A2661F0232B242B252B21F408950A265A
:1006500009F4A140A6958FEF811D811D089597F99A
:100660009F6780E870E060E008959FEF80EC089558
:1006700000240A9416161706180609060895002481
:100680000A9412161306140605060895092E0394FB
:10069000000C11F4882352F0BB0F40F4BF2B11F46F
:1006A00060FF04C06F5F7F4F8F4F9F4F089557FDCE
:1006B0009058440F551F59F05F3F71F04795880FD0
:1006C00097FB991F61F09F3F79F087950895121667
:1006D00013061406551FF2CF4695F1DF08C0161613
:1006E00017061806991FF1CF8695710561050894C4
:1006F0000895E894BB2766277727CB0197F90895DB
:100700000E940B0308F48FEF08950E9498030C9445
:1007100046030E94380338F00E943F0320F09523DF
:1007200011F00C942F030C94350311240C947A03CC
:100730000E94570370F3959FC1F3950F50E0551F2A
:10074000629FF001729FBB27F00DB11D639FAA2726
:10075000F00DB11DAA1F649F6627B00DA11D661F75
:10076000829F2227B00DA11D621F739FB00DA11D96
:10077000621F839FA00D611D221F749F3327A00D50
:10078000611D231F849F600D211D822F762F6A2FEC
:1007900011249F5750409AF0F1F088234AF0EE0F51
:1007A000FF1FBB1F661F771F881F91505040A9F77E
:1007B0009E3F510580F00C942F030C947A035F3F09
:1007C000E4F3983ED4F3869577956795B795F795BA
:1007D000E7959F5FC1F7FE2B880F911D9695879532
:0807E00097F90895F894FFCF8A
:0E07E80000000002000000006700000000009A
:00000001FF
